S01500004C454420464C4F5720544553542E7372656382
S11300000C942A000C9447000C9447000C9447006D
S11300100C9447000C9447000C9447000C94470040
S11300200C9447000C9447000C9447000C94470030
S11300300C9447000C9447000C9447000C94470020
S11300400C9447000C9447000C9447000C94470010
S11300500C94470011241FBECFE5D4E0DEBFCDBF12
S113006010E0A0E6B0E0E8EFF0E002C005900D92E9
S1130070A036B107D9F710E0A0E6B0E001C01D92A8
S1130080A036B107E1F70E9477000C947A000C9433
S11300900000DC01CB010097A105B10541F00197F7
S11300A0A109B10900000097A105B105C1F70895A0
S11300B0009741F4089521503040E9F7000001977A
S11300C019F408954FEF5FEF9A01F5CFCF938FEFB7
S11300D08ABB81E08BBBC8E08EE190E00E945800AF
S11300E08BB3880F8BBBC150B9F7CF9108950E9491
S10B00F06600FDCFF894FFCF78
S9030000FC
