:100000000C942A000C9447000C9447000C94470071
:100010000C940D020C9447000C9447000C9447007C
:100020000C9478020C9447000C9447000C94470001
:100030000C9447000C9447000C9447000C94470024
:100040000C9447000C9447000C9447000C94470014
:100050000C94470011241FBECFE5D4E0DEBFCDBF16
:1000600010E0A0E6B0E0E4EBF8E002C005900D92ED
:10007000A238B107D9F710E0A2E8B0E001C01D92A4
:10008000AB38B107E1F70E94E1020C9458040C94DC
:100090000000DC01CB010097A105B10541F00197FB
:1000A000A109B10900000097A105B105C1F70895A4
:1000B000009741F4089521503040E9F7000001977E
:1000C00019F408954FEF5FEF9A01F5CF12BE89B78B
:1000D000816089BF83B7856083BF089520E030E0E9
:1000E00041EE55E40E94E1039B01AC0160E070E049
:1000F00080E893E40E94FF020E94640362BF0895B7
:1001000088B78E7FE9F388B7816088BF0895B89873
:10011000C09A8FEF82BF89B7806289BF83B786603C
:1001200083BF0895BB9A12BE81E08CBF89B78360FC
:1001300089BF83B78A6783BF089520E030E041E636
:1001400059E40E94E1030E9464036CBF08951DBC42
:100150001CBC89B7846089BF8EB585608EBD08954B
:1001600020E030E041EE55E40E94E1039B01AC0148
:1001700060E070E080E897E40E94FF020E94640360
:10018000DC01CB019DBD8CBD08958D9A95981DBC59
:100190001CBC89B7846189BF8FB582688FBD8EB55D
:1001A0008D618EBD0895CF92DF92EF92FF9269012B
:1001B0007A0120E030E041EE55E40E94E1030E9424
:1001C0006403DC01CB019BBD8ABDC701B60120E001
:1001D00030E041EE55E40E94E1030E946403DC013B
:1001E000CB0197BD86BDFF90EF90DF90CF90089533
:1001F0008D9A95981DBC1CBC1BBC1ABC89B7846128
:1002000089BF8FB583688FBD8EB582608EBD08951E
:100210008E98969A12BE89B7806289BF8EB5816C1E
:100220008EBD089514BC89B7806489BF85B5876089
:1002300085BD089520E030E041EE55E40E94E103E1
:100240009B01AC0160E070E080E893E40E94FF0253
:100250000E94640364BD08958FEF8ABB1BBA0895A2
:10026000CF93DF93CDB7DEB7A1970FB6F894DEBF7B
:100270000FBECDBFDE011196E0E6F0E091E2019005
:100280000D929150E1F7FE01E80FF11D81818BBBCA
:10029000A1960FB6F894DEBF0FBECDBFDF91CF9110
:1002A0000895CF93C0E08C2F0E94300187E090E04A
:1002B0000E945800CF5FC031B1F7CF9108958FEF02
:1002C0008ABB1BBA8ABB87B38F6087BB089598B37C
:1002D0009F6098BB1BBAC3980E94300164E670E02F
:1002E00080E090E00E944900089598B39F6098BB19
:1002F0001BBAC2980E94300164E670E080E090E092
:100300000E944900089598B39F6098BB1BBAC1989A
:100310000E94300164E670E080E090E00E944900B5
:10032000089598B39F6098BB1BBAC0980E94300193
:1003300064E670E080E090E00E94490008951F9319
:10034000CF93DF93C82FD62F142F822F0E946701DF
:10035000812F0E9475018D2F0E9483018C2F0E9496
:100360009101DF91CF911F9108951F93CF93DF9358
:10037000C82FD62F142F822F0E946701812F0E9431
:1003800075018D2F0E9483018C2F0E949101DF91B6
:10039000CF911F9108951F93CF93DF93D82FC62F2E
:1003A000142F822F0E946701812F0E9475018D2FCB
:1003B0000E9491018C2F0E948301DF91CF911F91A8
:1003C00008951F93CF93DF93D82F162FC42F822F1A
:1003D0000E946701812F0E9483018D2F0E9491014D
:1003E0008C2F0E947501DF91CF911F9108951F936B
:1003F000CF93DF93D82F162F842FC22F0E94750121
:10040000812F0E9483018D2F0E9491018C2F0E94C9
:100410006701DF91CF911F9108951F920F920FB640
:100420000F9211242F933F934F935F936F937F937A
:100430008F939F93AF93BF93CF93DF93EF93FF93EC
:100440006AE077ED83E29CE30E941A0180918900C3
:1004500090918A00019690938A0080938900843657
:10046000910599F510928A001092890020918700D9
:10047000309188002F5F3F4F309388002093870092
:10048000C90168E572E00E94440460938600C901D6
:100490006CE370E00E944404EC01EAE0F0E0CB0180
:1004A000BF010E94440480938500CE01BF010E94D9
:1004B000440460938400809383008EE020313807E9
:1004C00021F41092880010928700FF91EF91DF9144
:1004D000CF91BF91AF919F918F917F916F915F91DC
:1004E0004F913F912F910F900FBE0F901F90189535
:1004F0001F920F920FB60F9211242F933F934F9399
:100500005F936F937F938F939F93AF93BF93EF937B
:10051000FF936FE672E183E89AE30E94B000809156
:1005200082008130A9F0813028F08230F9F08330E8
:10053000B9F52AC0809186006091850040918400C1
:10054000209183000E94B50181E08093820028C041
:100550008091860060918500409184002091830005
:100560000E94CB0182E0809382001AC080918600B5
:100570006091850040918400209183000E94E101F8
:1005800083E0809382000CC080918600609185009A
:1005900040918400209183000E94F7011092820014
:1005A000FF91EF91BF91AF919F918F917F916F914B
:1005B0005F914F913F912F910F900FBE0F901F9021
:1005C00018950E9412016AE077ED83E29CE30E9495
:1005D0001A010E94A7006FE672E183E89AE30E9485
:1005E000B0000E945F01809186006091850040917B
:1005F0008400209183000E949F017894FFCF50587F
:10060000BB27AA270ED0A3C094D030F099D020F0F9
:1006100031F49F3F11F41EF489C00EF4E095E7FB1E
:100620007FC0E92FA5D080F3BA176207730784074C
:10063000950718F071F49EF5BDC00EF4E0950B2EF1
:10064000BA2FA02D0B01B90190010C01CA01A00124
:100650001124FF27591B99F0593F50F4503E68F17F
:100660001A16F040A22F232F342F4427585FF3CFC0
:10067000469537952795A795F0405395C9F77EF491
:100680001F16BA0B620B730B840BBAF09150A1F0DA
:10069000FF0FBB1F661F771F881FC2F70EC0BA0F60
:1006A000621F731F841F48F4879577956795B795E8
:1006B000F7959E3F08F0B3CF9395880F08F09927E0
:1006C000EE0F9795879508955BD088F09F5790F02F
:1006D000B92F9927B751A0F0D1F0660F771F881F67
:1006E000991F1AF0BA95C9F712C0B13081F062D0E3
:1006F000B1E008955FC0672F782F8827B85F39F081
:10070000B93FCCF3869577956795B395D9F73EF4C5
:1007100090958095709561957F4F8F4F9F4F08956D
:1007200097F99F6780E870E060E008959FEF80ECA4
:10073000089500240A941616170618060906089547
:1007400000240A9412161306140605060895092EAD
:100750000394000C11F4882352F0BB0F40F4BF2B1C
:1007600011F460FF04C06F5F7F4F8F4F9F4F08955C
:1007700057FD9058440F551F59F05F3F71F0479552
:10078000880F97FB991F61F09F3F79F08795089537
:10079000121613061406551FF2CF4695F1DF08C056
:1007A000161617061806991FF1CF86957105610573
:1007B00008940895E894BB2766277727CB0197F91B
:1007C00008950BD0C4CFB5DF28F0BADF18F0952319
:1007D00009F0A6CFABCF1124EECFCADFA0F3959FCF
:1007E000D1F3950F50E0551F629FF001729FBB2718
:1007F000F00DB11D639FAA27F00DB11DAA1F649FC4
:100800006627B00DA11D661F829F2227B00DA11D76
:10081000621F739FB00DA11D621F839FA00D611DFC
:10082000221F749F3327A00D611D231F849F600D1D
:10083000211D822F762F6A2F11249F5750408AF056
:10084000E1F088234AF0EE0FFF1FBB1F661F771FE2
:10085000881F91505040A9F79E3F510570F060CF1E
:10086000AACF5F3FECF3983EDCF3869577956795CA
:10087000B795F795E7959F5FC1F7FE2B880F911D00
:100880009695879597F90895AA1BBB1B51E107C060
:10089000AA1FBB1FA617B70710F0A61BB70B881F10
:1008A000991F5A95A9F780959095BC01CD0108959F
:0408B000F894FFCFEA
:1008B4003F065B4F666D7D077F6F777C395E79718C
:1008C40000BF86DBCFE6EDFD87FFEFF7FCB9DEF96D
:0208D400F10031
:00000001FF
