:100000000C942A000C9447000C9447000C94470071
:100010000C9447000C9447000C94DF010C944700AB
:100020000C9447000C9447000C9447000C94470034
:100030000C9447000C9447000C9447000C94470024
:100040000C9447000C9447000C9447000C94470014
:100050000C94470011241FBECFE5D4E0DEBFCDBF16
:1000600010E0A0E6B0E0E2E4F7E002C005900D92F7
:10007000AC37B107D9F710E0ACE7B0E001C01D9292
:10008000AE37B107E1F70E94EE010C949F030C9488
:100090000000DC01CB010097A105B10541F00197FB
:1000A000A109B10900000097A105B105C1F70895A4
:1000B000009741F4089521503040E9F7000001977E
:1000C00019F408954FEF5FEF9A01F5CF12BE89B78B
:1000D000816089BF83B7856083BF089520E030E0E9
:1000E00041EE55E40E941A039B01AC0160E070E010
:1000F00080E893E40E9438020E949D0262BF089546
:1001000088B78E7FE9F388B7816088BF0895B89873
:10011000C09A8FEF82BF89B7806289BF83B786603C
:1001200083BF0895BB9A12BE81E08CBF89B78360FC
:1001300089BF83B78A6783BF089520E030E041E636
:1001400059E40E941A030E949D026CBF08951DBCD1
:100150001CBC89B7846089BF8EB585608EBD08954B
:1001600020E030E041EE55E40E941A039B01AC010F
:1001700060E070E080E897E40E9438020E949D02EF
:10018000DC01CB019DBD8CBD08951DBC1CBC89B795
:10019000806189BF8EB589608EBD08958D9A9598CE
:1001A0001DBC1CBC89B7846189BF8FB582688FBDB7
:1001B0008EB58D618EBD0895CF92DF92EF92FF9242
:1001C00069017A0120E030E041EE55E40E941A0313
:1001D0000E949D02DC01CB019BBD8ABDC701B60117
:1001E00020E030E041EE55E40E941A030E949D0297
:1001F000DC01CB0197BD86BDFF90EF90DF90CF90E3
:1002000008958D9A95981DBC1CBC1BBC1ABC89B75F
:10021000846189BF8FB583688FBD8EB582608EBDC6
:1002200008958E98969A12BE89B7806289BF8EB55E
:10023000816C8EBD089514BC89B7806489BF85B573
:10024000876085BD089520E030E041EE55E40E94CE
:100250001A039B01AC0160E070E080E893E40E9427
:1002600038020E949D0264BD08958F9A9798089560
:10027000CF92DF92EF92FF92CF93C4E6C82EDD2497
:10028000EE24FF2482B3805882BBC701B6010E94CE
:100290004900C150B9F7CF91FF90EF90DF90CF9018
:1002A00008959798089517BA8FEF88BB089564E66C
:1002B00070E080E090E00E94490096B381E09F3FAB
:1002C00009F480E00895B799FECF64EF71E080E013
:1002D00090E00E944900B799FECFB79BFECF64EF34
:1002E00071E080E090E00E944900B79BFECF089546
:1002F000CF9317BA8FEF88BBC6B3CC2361F16EE101
:1003000070E080E090E00E944900CF3ED1F0C03F15
:1003100038F4CF3BD1F0CF3DB1F0CF37D1F417C097
:10032000CB3F59F0CC3F18F4C73F99F408C0CD3FFC
:10033000A1F0CE3F71F481E011C083E00FC084E0F2
:100340000DC085E00BC086E009C087E007C088E0EB
:1003500005C080E103C080E101C082E0CF91089533
:100360008FEF8ABBB09907C080917D008150877064
:1003700080937D0008C0B19906C080917D008F5F99
:10038000877080937D0081E090E000907D0002C046
:10039000880F991F0A94E2F78BBB089596B380915A
:1003A0007C00981759F086B380937C000E94B001BE
:1003B00064E170E080E090E00E94490008951F929F
:1003C0000F920FB60F9211248F9382B3805882BB85
:1003D0008F910F900FBE0F901F9018950E943501BE
:1003E0000E9453018FEF8ABB1BBA0E94C50089B7D8
:1003F0008F7E89BF7894C0E000E610E00F2EF0E019
:10040000CF2EF0E4DF2EF8E3EF2EF0E0FF2EF02DFC
:10041000D0E001C0CD2F0E9463018BB380958BBBD0
:10042000EC2FF0E0EE0FFF1FE00FF11F2081318174
:10043000442737FD4095542FC701B6010E947D0324
:100440003BBD2ABD1DBC1CBC89B7806189BF85E04E
:1004500090E00E94580089B78F7E89BF0E945101A9
:1004600082E090E00E945800CF5FCE30A1F6D2CF5C
:100470005058BB27AA270ED0A3C094D030F099D0F3
:1004800020F031F49F3F11F41EF489C00EF4E09582
:10049000E7FB7FC0E92FA5D080F3BA176207730787
:1004A0008407950718F071F49EF5BDC00EF4E09531
:1004B0000B2EBA2FA02D0B01B90190010C01CA011E
:1004C000A0011124FF27591B99F0593F50F4503EC9
:1004D00068F11A16F040A22F232F342F4427585FBB
:1004E000F3CF469537952795A795F0405395C9F7D3
:1004F0007EF41F16BA0B620B730B840BBAF091508B
:10050000A1F0FF0FBB1F661F771F881FC2F70EC029
:10051000BA0F621F731F841F48F4879577956795FC
:10052000B795F7959E3F08F0B3CF9395880F08F0E5
:100530009927EE0F9795879508955BD088F09F5780
:1005400090F0B92F9927B751A0F0D1F0660F771F1F
:10055000881F991F1AF0BA95C9F712C0B13081F0FF
:1005600062D0B1E008955FC0672F782F8827B85F09
:1005700039F0B93FCCF3869577956795B395D9F760
:100580003EF490958095709561957F4F8F4F9F4F6A
:10059000089597F99F6780E870E060E008959FEF05
:1005A00080EC089500240A9416161706180609060A
:1005B000089500240A9412161306140605060895D9
:1005C000092E0394000C11F4882352F0BB0F40F461
:1005D000BF2B11F460FF04C06F5F7F4F8F4F9F4FA1
:1005E000089557FD9058440F551F59F05F3F71F023
:1005F0004795880F97FB991F61F09F3F79F087958A
:100600000895121613061406551FF2CF4695F1DF12
:1006100008C0161617061806991FF1CF86957105A2
:10062000610508940895E894BB2766277727CB01D6
:1006300097F908950BD0C4CFB5DF28F0BADF18F0D2
:10064000952309F0A6CFABCF1124EECFCADFA0F3DC
:10065000959FD1F3950F50E0551F629FF001729F57
:10066000BB27F00DB11D639FAA27F00DB11DAA1F76
:10067000649F6627B00DA11D661F829F2227B00DC3
:10068000A11D621F739FB00DA11D621F839FA00D4E
:10069000611D221F749F3327A00D611D231F849F9E
:1006A000600D211D822F762F6A2F11249F575040F5
:1006B0008AF0E1F088234AF0EE0FFF1FBB1F661F90
:1006C000771F881F91505040A9F79E3F510570F049
:1006D00060CFAACF5F3FECF3983EDCF38695779529
:1006E0006795B795F795E7959F5FC1F7FE2B880F44
:1006F000911D9695879597F90895A1E21A2EAA1B48
:10070000BB1BFD010DC0AA1FBB1FEE1FFF1FA217C1
:10071000B307E407F50720F0A21BB30BE40BF50BBE
:10072000661F771F881F991F1A9469F76095709547
:10073000809590959B01AC01BD01CF010895F8947F
:02074000FFCFE9
:10074200060126014A015D018801B801EE010B0292
:0C0752004B029302BA021003700316045D
:00000001FF
