:100000000C942A000C9447000C9447000C94470071
:100010000C9447000C9447000C9447000C94470044
:100020000C9447000C941F010C9447000C9447005B
:100030000C9447000C9447000C9447000C94470024
:100040000C9447000C9447000C9447000C94470014
:100050000C94470011241FBECFE5D4E0DEBFCDBF16
:1000600010E0A0E6B0E0ECE4F5E002C005900D92EF
:10007000A036B107D9F710E0A0E6B0E001C01D92AC
:10008000A136B107E1F70E9453010C94A4020C942D
:100090000000DC01CB010097A105B10541F00197FB
:1000A000A109B10900000097A105B105C1F70895A4
:1000B000009741F4089521503040E9F7000001977E
:1000C00019F408954FEF5FEF9A01F5CF8FEF8ABBD8
:1000D0001BBA08954BB321E030E0B90102C0660FAE
:1000E000771F8A95E2F7CB0184278BBB08950F9386
:1000F0001F93CF93C62F9AB301E010E002C0000F08
:10010000111F8A95E2F7802F902B9ABB9BB3892B06
:100110008BBB862F90E00E9458008BB3009508237C
:100120000BBB8C2F90E00E945800CF911F910F9134
:100130000895CF938FEF8ABB81E08BBBC8E085E049
:1001400090E00E9458008BB3880F8BBBC150B9F769
:10015000CF910895BB9A12BE81E08CBF89B78160B0
:1001600089BF83B7856183BF089520E030E041EE09
:1001700055E40E9441029B01AC0160E070E080E820
:1001800093E40E945F010E94C40162BF0895BB9A7C
:1001900012BE81E08CBF89B7836089BF83B78A674D
:1001A00083BF089520E030E041E659E40E94410217
:1001B0000E94C4016CBF08958D9A95981DBC1CBC0B
:1001C00089B7846189BF8FB582688FBD8EB58D6117
:1001D0008EBD0895CF92DF92EF92FF9269017A016E
:1001E00020E030E041EE55E40E9441020E94C4014B
:1001F000DC01CB019BBD8ABDC701B60120E030E028
:1002000041EE55E40E9441020E94C401DC01CB0191
:1002100097BD86BDFF90EF90DF90CF9008958D9AA7
:1002200095981DBC1CBC1BBC1ABC89B7846189BFD6
:100230008FB583688FBD8EB582608EBD08951F9285
:100240000F920FB60F9211242F933F934F935F930A
:100250006F937F938F939F93AF93BF93EF93FF938E
:100260006AE077ED83E29CE30E94B5008091600034
:100270008F5F80936000823329F41092600080E0E9
:100280000E946A00FF91EF91BF91AF919F918F9172
:100290007F916F915F914F913F912F910F900FBE82
:1002A0000F901F9018950E9466000E94AA006AE0B5
:1002B00077ED83E29CE30E94B5007894FFCF50581D
:1002C000BB27AA270ED0A3C094D030F099D020F03D
:1002D00031F49F3F11F41EF489C00EF4E095E7FB62
:1002E0007FC0E92FA5D080F3BA1762077307840790
:1002F000950718F071F49EF5BDC00EF4E0950B2E35
:10030000BA2FA02D0B01B90190010C01CA01A00167
:100310001124FF27591B99F0593F50F4503E68F1C2
:100320001A16F040A22F232F342F4427585FF3CF03
:10033000469537952795A795F0405395C9F77EF4D4
:100340001F16BA0B620B730B840BBAF09150A1F01D
:10035000FF0FBB1F661F771F881FC2F70EC0BA0FA3
:10036000621F731F841F48F4879577956795B7952B
:10037000F7959E3F08F0B3CF9395880F08F0992723
:10038000EE0F9795879508955BD088F09F5790F072
:10039000B92F9927B751A0F0D1F0660F771F881FAA
:1003A000991F1AF0BA95C9F712C0B13081F062D026
:1003B000B1E008955FC0672F782F8827B85F39F0C4
:1003C000B93FCCF3869577956795B395D9F73EF409
:1003D00090958095709561957F4F8F4F9F4F0895B1
:1003E00097F99F6780E870E060E008959FEF80ECE8
:1003F000089500240A94161617061806090608958B
:1004000000240A9412161306140605060895092EF0
:100410000394000C11F4882352F0BB0F40F4BF2B5F
:1004200011F460FF04C06F5F7F4F8F4F9F4F08959F
:1004300057FD9058440F551F59F05F3F71F0479595
:10044000880F97FB991F61F09F3F79F0879508957A
:10045000121613061406551FF2CF4695F1DF08C099
:10046000161617061806991FF1CF869571056105B6
:1004700008940895E894BB2766277727CB0197F95E
:1004800008950BD0C4CFB5DF28F0BADF18F095235C
:1004900009F0A6CFABCF1124EECFCADFA0F3959F12
:1004A000D1F3950F50E0551F629FF001729FBB275B
:1004B000F00DB11D639FAA27F00DB11DAA1F649F07
:1004C0006627B00DA11D661F829F2227B00DA11DBA
:1004D000621F739FB00DA11D621F839FA00D611D40
:1004E000221F749F3327A00D611D231F849F600D61
:1004F000211D822F762F6A2F11249F5750408AF09A
:10050000E1F088234AF0EE0FFF1FBB1F661F771F25
:10051000881F91505040A9F79E3F510570F060CF61
:10052000AACF5F3FECF3983EDCF38695779567950D
:10053000B795F795E7959F5FC1F7FE2B880F911D43
:0C0540009695879597F90895F894FFCFE1
:00000001FF
