S01B00005445535432315F54494D4552305F43415443482E7372656394
S11300000C942A000C9447000C9447000C9447006D
S11300100C9447000C9447000C9447000C94470040
S11300200C9447000C9403020C9447000C94470072
S11300300C9447000C9447000C9447000C94470020
S11300400C9447000C9447000C9447000C94470010
S11300500C94470011241FBECFE5D4E0DEBFCDBF12
S113006010E0A0E6B0E0E6E1F7E002C005900D92F2
S1130070A237B107D9F710E0A2E7B0E001C01D92A2
S1130080A537B107E1F70E942A020C9489030C9466
S11300900000DC01CB010097A105B10541F00197F7
S11300A0A109B10900000097A105B105C1F70895A0
S11300B0009741F4089521503040E9F7000001977A
S11300C019F408954FEF5FEF9A01F5CF8FEF8ABBD4
S11300D01BBA0895CF93DF93CDB7DEB761970FB600
S11300E0F894DEBF0FBECDBFDE011196E0E6F0E06E
S11300F091E101900D929150E1F7FE01E80FF11D9D
S113010081818BBB61960FB6F894DEBF0FBECDBF65
S1130110DF91CF910895CF93C0E08C2F0E946A00A5
S113012087E090E00E945800CF5FC031B1F7CF91D3
S113013008958FEF8ABB1BBA8ABB81B38F6081BBE2
S1130140089592B39F6092BB1BBA93980E946A0071
S113015064E670E080E090E00E944900089592B364
S11301609F6092BB1BBA92980E946A0064E670E09A
S113017080E090E00E944900089592B39F6092BB92
S11301801BBA91980E946A0064E670E080E090E0F7
S11301900E944900089592B39F6092BB1BBA909845
S11301A00E946A0064E670E080E090E00E944900EA
S11301B008951F93CF93DF93C82FD62F142F822F28
S11301C00E94CB00812F0E94BD008D2F0E94AF00A2
S11301D08C2F0E94A100DF91CF911F9108951F934E
S11301E0CF93DF93C82FD62F142F822F0E94CB00DA
S11301F0812F0E94BD008D2F0E94AF008C2F0E9482
S1130200A100DF91CF911F9108951F93CF93DF93A6
S1130210D82FC62F142F822F0E94CB00812F0E942B
S1130220BD008D2F0E94A1008C2F0E94AF00DF9192
S1130230CF911F9108951F93CF93DF93D82F162F3B
S1130240C42F822F0E94CB00812F0E94AF008D2FDC
S11302500E94A1008C2F0E94BD00DF91CF911F91BD
S113026008951F93CF93DF93D82F162F842FC22F77
S11302700E94BD00812F0E94AF008D2F0E94A1001B
S11302808C2F0E94CB00DF91CF911F91089512BE55
S113029089B7816089BF83B7856183BF089520E0F2
S11302A030E041EE55E40E941A039B01AC0160E08A
S11302B070E080E893E40E9438020E949D0262BFCD
S11302C0089588B78E7FE9F388B7816088BF089561
S11302D0B898C09A8FEF82BF89B7816089BF83B70E
S11302E0866083BF0895BB9A12BE81E08CBF89B734
S11302F0836089BF83B78A6783BF089520E030E0B5
S113030041E659E40E941A030E949D026CBF0895BD
S11303101DBC1CBC89B7846089BF8EB585608EBD49
S1130320089520E030E041EE55E40E941A039B0159
S1130330AC0160E070E080E897E40E9438020E941B
S11303409D02DC01CB019DBD8CBD08958D9A9598CD
S11303501DBC1CBC89B7846189BF8FB582688FBD01
S11303608EB58D618EBD0895CF92DF92EF92FF928C
S113037069017A0120E030E041EE55E40E941A035D
S11303800E949D02DC01CB019BBD8ABDC701B60161
S113039020E030E041EE55E40E941A030E949D02E1
S11303A0DC01CB0197BD86BDFF90EF90DF90CF902D
S11303B008958D9A95981DBC1CBC1BBC1ABC89B7AA
S11303C0846189BF8FB583688FBD8EB582608EBD11
S11303D0089514BC89B7806489BF85B5876085BDDD
S11303E0089520E030E041EE55E40E941A039B0199
S11303F0AC0160E070E080E893E40E9438020E945F
S11304009D0264BD08951F920F920FB60F9211249E
S11304102F936F937F938F939F938FEF82BF20913E
S113042074002F5F20937400822F6AE00E947D0382
S11304308093730090937200233611F41092740029
S11304409F918F917F916F912F910F900FBE0F907D
S11304501F9018950E9499000E946801789480E08A
S113046060E040917300209172000E94D900F7CFA0
S11304705058BB27AA270ED0A3C094D030F099D0EF
S113048020F031F49F3F11F41EF489C00EF4E0957E
S1130490E7FB7FC0E92FA5D080F3BA176207730783
S11304A08407950718F071F49EF5BDC00EF4E0952D
S11304B00B2EBA2FA02D0B01B90190010C01CA011A
S11304C0A0011124FF27591B99F0593F50F4503EC5
S11304D068F11A16F040A22F232F342F4427585FB7
S11304E0F3CF469537952795A795F0405395C9F7CF
S11304F07EF41F16BA0B620B730B840BBAF0915087
S1130500A1F0FF0FBB1F661F771F881FC2F70EC025
S1130510BA0F621F731F841F48F4879577956795F8
S1130520B795F7959E3F08F0B3CF9395880F08F0E1
S11305309927EE0F9795879508955BD088F09F577C
S113054090F0B92F9927B751A0F0D1F0660F771F1B
S1130550881F991F1AF0BA95C9F712C0B13081F0FB
S113056062D0B1E008955FC0672F782F8827B85F05
S113057039F0B93FCCF3869577956795B395D9F75C
S11305803EF490958095709561957F4F8F4F9F4F66
S1130590089597F99F6780E870E060E008959FEF01
S11305A080EC089500240A94161617061806090606
S11305B0089500240A9412161306140605060895D5
S11305C0092E0394000C11F4882352F0BB0F40F45D
S11305D0BF2B11F460FF04C06F5F7F4F8F4F9F4F9D
S11305E0089557FD9058440F551F59F05F3F71F01F
S11305F04795880F97FB991F61F09F3F79F0879586
S11306000895121613061406551FF2CF4695F1DF0E
S113061008C0161617061806991FF1CF869571059E
S1130620610508940895E894BB2766277727CB01D2
S113063097F908950BD0C4CFB5DF28F0BADF18F0CE
S1130640952309F0A6CFABCF1124EECFCADFA0F3D8
S1130650959FD1F3950F50E0551F629FF001729F53
S1130660BB27F00DB11D639FAA27F00DB11DAA1F72
S1130670649F6627B00DA11D661F829F2227B00DBF
S1130680A11D621F739FB00DA11D621F839FA00D4A
S1130690611D221F749F3327A00D611D231F849F9A
S11306A0600D211D822F762F6A2F11249F575040F1
S11306B08AF0E1F088234AF0EE0FFF1FBB1F661F8C
S11306C0771F881F91505040A9F79E3F510570F045
S11306D060CFAACF5F3FECF3983EDCF38695779525
S11306E06795B795F795E7959F5FC1F7FE2B880F40
S11306F0911D9695879597F90895991B79E004C003
S1130700991F961708F0961B881F7A95C9F780954C
S10907100895F894FFCFE8
S11307163F065B4F666D7D077F6F777C395E797127
S10507260000CD
S9030000FC
