:100000000C942A000C9447000C9447000C94470071
:100010000C9447000C9447000C9447000C94470044
:100020000C9447000C94C7000C9447000C944700B4
:100030000C9447000C9447000C9447000C94470024
:100040000C9447000C9447000C9447000C94D1008A
:100050000C94470011241FBECFE5D4E0DEBFCDBF16
:1000600010E0A0E6B0E0E8ECF3E002C005900D92ED
:10007000A036B107D9F710E0A0E6B0E001C01D92AC
:10008000A236B107E1F70E94DB000C94E2010C9468
:100090000000DC01CB010097A105B10541F00197FB
:1000A000A109B10900000097A105B105C1F70895A4
:1000B000009741F4089521503040E9F7000001977E
:1000C00019F408954FEF5FEF9A01F5CFBB9A12BE76
:1000D00081E08CBF89B7836089BF83B78A6783BF9C
:1000E00008951CBE08958D9A95981DBC1CBC89B7B7
:1000F000846189BF8FB582688FBD8EB58D618EBDDD
:100100000895CF92DF92EF92FF9269017A0120E089
:1001100030E041EE55E40E9457010E940201DC01EB
:10012000CB019BBD8ABDC701B60120E030E041EEA6
:1001300055E40E9457010E940201DC01CB0197BDEA
:1001400086BDFF90EF90DF90CF9008958D9A95989F
:100150001DBC1CBC1BBC1ABC89B7846189BF8FB590
:1001600083688FBD8EB582608EBD0895CF938FEF6B
:100170008ABB81E08BBBC8E08EE190E00E94580012
:100180008BB3880F8BBBC150B9F7CF9108951F92E5
:100190000F920FB60F9211240F900FBE0F901F9069
:1001A00018951F920F920FB60F9211240F900FBE49
:1001B0000F901F9018950E94660010926100109297
:1001C00060007894C1E080916000882351F48091B0
:1001D00061008F5F809361008A3F60F0C093600090
:1001E00009C080916100815080936100882311F4DF
:1001F000C0936000809161008CBF83E090E00E941A
:100200005800E1CF33D088F09F5790F0B92F99274D
:10021000B751A0F0D1F0660F771F881F991F1AF011
:10022000BA95C9F712C0B13081F03AD0B1E0089563
:1002300037C0672F782F8827B85F39F0B93FCCF3E4
:10024000869577956795B395D9F73EF49095809507
:10025000709561957F4F8F4F9F4F089557FD905830
:10026000440F551F59F05F3F71F04795880F97FB7A
:10027000991F61F09F3F79F0879508951216130634
:100280001406551FF2CF4695F1DF08C01616170663
:100290001806991FF1CF8695710561050894089598
:1002A000E894BB2766277727CB0197F908950BD0F1
:1002B00078C069D028F06ED018F0952309F05AC0A4
:1002C0005FC01124EECFCADFA0F3959FD1F3950F45
:1002D00050E0551F629FF001729FBB27F00DB11DCA
:1002E000639FAA27F00DB11DAA1F649F6627B00D5A
:1002F000A11D661F829F2227B00DA11D621F739F43
:10030000B00DA11D621F839FA00D611D221F749F50
:100310003327A00D611D231F849F600D211D822F97
:10032000762F6A2F11249F5750408AF0E1F08823DE
:100330004AF0EE0FFF1FBB1F661F771F881F9150EB
:100340005040A9F79E3F510570F014C0AACF5F3FFF
:10035000ECF3983EDCF3869577956795B795F7951E
:10036000E7959F5FC1F7FE2B880F911D96958795A6
:1003700097F9089597F99F6780E870E060E0089525
:100380009FEF80EC089500240A94161617061806AD
:100390000906089500240A94121613061406050689
:1003A0000895092E0394000C11F4882352F0BB0F1A
:1003B00040F4BF2B11F460FF04C06F5F7F4F8F4F7D
:0803C0009F4F0895F894FFCF50
:00000001FF
