S018000054455354355F4E495849455F53484F572E737265631B
S11300000C942A000C9447000C9447000C9447006D
S11300100C9447000C9447000C9447000C94470040
S11300200C9447000C9447000C9447000C94470030
S11300300C9447000C9447000C9447000C94470020
S11300400C9447000C9447000C9447000C94470010
S11300500C94470011241FBECFE5D4E0DEBFCDBF12
S113006010E0A0E6B0E0E0E4F1E002C005900D92FB
S1130070A237B107D9F710E0A2E7B0E001C01D92A2
S1130080A237B107E1F70E9499000C949E000C94EA
S11300900000DC01CB010097A105B10541F00197F7
S11300A0A109B10900000097A105B105C1F70895A0
S11300B0009741F4089521503040E9F7000001977A
S11300C019F408954FEF5FEF9A01F5CF8FEF8ABBD4
S11300D01BBA0895CF93DF93CDB7DEB761970FB600
S11300E0F894DEBF0FBECDBFDE011196E0E6F0E06E
S11300F091E101900D929150E1F7FE01E80FF11D9D
S113010081818BBB61960FB6F894DEBF0FBECDBF65
S1130110DF91CF910895CF93C0E08C2F0E946A00A5
S113012087E090E00E945800CF5FC031B1F7CF91D3
S113013008950E9466000E948B00FDCFF894FFCFC3
S11301403F065B4F666D7D077F6F777C395E797103
S10501500000A9
S9030000FC
