:100000000C942A000C9447000C9447000C94470071
:100010000C9447000C9447000C9447000C94470044
:100020000C9447000C9447000C947A000C94470001
:100030000C9447000C9447000C9447000C94470024
:100040000C9447000C9447000C9447000C94470014
:100050000C94470011241FBECFE5D4E0DEBFCDBF16
:1000600010E0A0E6B0E0EEE2F1E002C005900D92F3
:10007000A036B107D9F710E0A0E6B0E001C01D92AC
:10008000A036B107E1F70E9484000C9495000C940F
:100090000000DC01CB010097A105B10541F00197FB
:1000A000A109B10900000097A105B105C1F70895A4
:1000B000009741F4089521503040E9F7000001977E
:1000C00019F408954FEF5FEF9A01F5CF87B3806B76
:1000D00087BBBE988DB1816D8DB90895BE9A87B3E7
:1000E0008F7487BB8DB1816C8DB90895C4986C9A5B
:1000F0008FB908951F920F920FB60F9211240F908F
:100100000FBE0F901F9018950E9466007894C0E073
:10011000D0E08C2F0E9476008EE190E00E94580083
:0E012000CF5FCA30B0F3CD2FF4CFF894FFCFED
:00000001FF
