:100000000C942A000C9447000C9447000C94470071
:100010000C9447000C9447000C9447000C94470044
:100020000C9447000C9447000C9447000C94470034
:100030000C9447000C9447000C9447000C94470024
:100040000C9447000C9447000C9447000C94470014
:100050000C94470011241FBECFE5D4E0DEBFCDBF16
:1000600010E0A0E6B0E0E8E7F1E002C005900D92F4
:10007000A236B107D9F710E0A2E6B0E001C01D92A8
:10008000A236B107E1F70E94B5000C94BA000C94B7
:100090000000DC01CB010097A105B10541F00197FB
:1000A000A109B10900000097A105B105C1F70895A4
:1000B000009741F4089521503040E9F7000001977E
:1000C00019F408954FEF5FEF9A01F5CF8FEF8ABBD8
:1000D0001BBA08954BB321E030E0B90102C0660FAE
:1000E000771F8A95E2F7CB0184278BBB08950F9386
:1000F0001F93CF93C62F9AB301E010E002C0000F08
:10010000111F8A95E2F7802F902B9ABB9BB3892B06
:100110008BBB862F90E00E9458008BB3009508237C
:100120000BBB8C2F90E00E945800CF911F910F9134
:100130000895CF938FEF8ABB81E08BBBC8E085E049
:1001400090E00E9458008BB3880F8BBBC150B9F769
:10015000CF910895DF9B05C08BB3880F81608BBB67
:1001600008958BB3880F8BBB089583E063E00E94F2
:080170007700FBCFF894FFCFEC
:02017800010084
:00000001FF
