:100000000C942A000C9447000C9447000C94470071
:100010000C9447000C9447000C9447000C94470044
:100020000C9447000C9447000C9447000C94470034
:100030000C9447000C9447000C9447000C94470024
:100040000C9447000C9447000C9447000C94470014
:100050000C94470011241FBECFE5D4E0DEBFCDBF16
:1000600010E0A0E6B0E0EAECF3E002C005900D92EB
:10007000A237B107D9F710E0A2E7B0E001C01D92A6
:10008000A237B107E1F70E94CE010C94E3010C9472
:100090000000DC01CB010097A105B10541F00197FB
:1000A000A109B10900000097A105B105C1F70895A4
:1000B000009741F4089521503040E9F7000001977E
:1000C00019F408954FEF5FEF9A01F5CF8FEF8ABBD8
:1000D0001BBA0895CF93DF93CDB7DEB761970FB604
:1000E000F894DEBF0FBECDBFDE011196E0E6F0E072
:1000F00091E101900D929150E1F7FE01E80FF11DA1
:1001000081818BBB61960FB6F894DEBF0FBECDBF69
:10011000DF91CF910895CF93C0E08C2F0E946A00A9
:1001200087E090E00E945800CF5FC031B1F7CF91D7
:1001300008958FEF8ABB1BBA8ABB87B38F6087BBDA
:1001400008951BBA98B39F6098BBC3980E946A0039
:100150006AE070E080E090E00E94490008951BBAD8
:1001600098B39F6098BBC2980E946A006AE070E0F2
:1001700080E090E00E94490008951BBA98B39F6008
:1001800098BBC1980E946A006AE070E080E090E04D
:100190000E94490008951BBA98B39F6098BBC0980D
:1001A0000E946A006AE070E080E090E00E944900EE
:1001B00008951F93CF93DF93C82FD62F142F822F2C
:1001C0000E94CB00812F0E94BD008D2F0E94AF00A6
:1001D0008C2F0E94A100DF91CF911F91089564E6BA
:1001E00070E080E090E00E94490096B381E09F308B
:1001F00009F480E00895CF9380EF87BB8FE088BB40
:100200006AE070E080E090E00E94490086B38B30A5
:1002100059F08C3018F4873059F408C08D3051F003
:100220008E3031F4C0E007C0C2E005C0C3E003C0B7
:10023000C0E101C0C1E08FE087BB80EF88BB6AE00E
:1002400070E080E090E00E94490086B3803B69F056
:10025000813B18F4803729F40AC0803D21F0803EAC
:1002600039F0C0E105C0CC5F03C0C85F01C0C45F06
:100270008C2FCF91089580EF87BB18BA11BA8FEFFA
:1002800082BB81E087BB88BB64E670E080E090E0E1
:100290000E94490080B38F3FA1F086B3833059F0AC
:1002A000843018F4813059F408C0853009F46EC0E8
:1002B000893029F469C088E008958CE0089580E1D0
:1002C000089582E087BB88BB64E670E080E090E040
:1002D0000E94490080B38F3FA9F086B3833071F04C
:1002E000843018F4823061F407C0863009F450C0BD
:1002F0008A3031F481E0089589E008958DE0089511
:1003000080E1089584E087BB88BB64E670E080E00C
:1003100090E00E94490086B390B39F3F99F08530EA
:1003200069F0863018F4843059F434C0863021F0F6
:100330008C3031F482E008958AE008958EE00895CB
:1003400080E1089588E087BB88BB64E670E080E0C8
:1003500090E00E94490086B390B39F3FA1F089309E
:1003600071F08A3018F4883061F405C08A3029F0C1
:100370008C3039F411C083E008958BE008958FE04C
:10038000089580E10895089580E0089584E0089537
:1003900085E0089586E0089587E008950E9466004C
:1003A0000E94EF008130E1F764E670E080E090E0C9
:1003B0000E9449000E94EF00813091F70E94FB00EB
:0A03C0000E946A00EDCFF894FFCF11
:1003CA003F065B4F666D7D077F6F777C395E79717B
:0203DA00000021
:00000001FF
