:100000000C942A000C9447000C9447000C94470071
:100010000C9447000C9447000C9447000C94470044
:100020000C9447000C9447000C9447000C94470034
:100030000C9447000C9447000C9447000C94470024
:100040000C9447000C9447000C9447000C94470014
:100050000C94470011241FBECFE5D4E0DEBFCDBF16
:1000600010E0A0E6B0E0ECE1F2E002C005900D92F5
:10007000A036B107D9F710E0A0E6B0E001C01D92AC
:10008000A236B107E1F70E94FB000C940C010C941E
:100090000000DC01CB010097A105B10541F00197FB
:1000A000A109B10900000097A105B105C1F70895A4
:1000B000009741F4089521503040E9F7000001977E
:1000C00019F408954FEF5FEF9A01F5CF17BA8FEF4C
:1000D00088BB089564E670E080E090E00E944900EB
:1000E00096B381E09F3F09F480E00895CF9317BA5B
:1000F0008FEF88BBC6B3CC2361F16EE170E080E086
:1001000090E00E944900CF3ED1F0C03F38F4CF3B91
:10011000D1F0CF3DB1F0CF37D1F417C0CB3F59F07C
:10012000CC3F18F4C73F99F408C0CD3FA1F0CE3FB3
:1001300071F481E011C083E00FC084E00DC085E060
:100140000BC086E009C087E007C088E005C080E1F9
:1001500003C080E101C082E0CF9108958FEF8ABB98
:10016000B09907C0809161008150877080936100D1
:1001700008C0B19906C0809161008F5F877080933D
:10018000610081E090E00090610002C0880F991F3B
:100190000A94E2F78BBB089596B38091600098179C
:1001A00059F086B3809360000E94AE0064E170E075
:1001B00080E090E00E94490008958F9A979A0895F0
:1001C000CF92DF92EF92FF92CF93C4E6C82EDD2448
:1001D000EE24FF2482B3805882BBC701B6010E947F
:1001E0004900C150B9F7CF91FF90EF90DF90CF90C9
:1001F0000895979808950E94DD000E9466008FEF91
:100200008ABB0E946A00813021F483E00E94E000F2
:0C021000F8CF0E94F900F5CFF894FFCF62
:00000001FF
