S0200000544553544558545241315F50484F544F5245534953544F522E73726563AB
S11300000C942A000C9447000C9447000C9447006D
S11300100C9447000C9447000C9447000C94470040
S11300200C9447000C9447000C9447000C94470030
S11300300C9447000C9447000C9447000C94470020
S11300400C9447000C9447000C9447000C94470010
S11300500C94470011241FBECFE5D4E0DEBFCDBF12
S113006010E0A0E6B0E0ECE4F1E002C005900D92EF
S1130070A036B107D9F710E0A0E6B0E001C01D92A8
S1130080AD36B107E1F70E9493000C94A4000C94E0
S11300900000DC01CB010097A105B10541F00197F7
S11300A0A109B10900000097A105B105C1F70895A0
S11300B0009741F4089521503040E9F7000001977A
S11300C019F408954FEF5FEF9A01F5CFB898C098EF
S11300D008950F931F93CF93DF93C3E6D0E08E016F
S11300E0065F1F4F86B3899365E070E080E090E07F
S11300F00E944900C017D107A9F78091630080FFCF
S11301000AC0E4E6F0E0819180FF07C0E017F10740
S1130110D1F780E003C081E001C081E0DF91CF919D
S11301201F910F9108958FEF8ABB1BBA0E9466003E
S1130130D1E0C2E00E946900882321F08130D1F728
S10F0140DBBBF8CFCBBBF6CFF894FFCFAD
S9030000FC
