:100000000C942A000C9401010C9447000C944700B6
:100010000C9447000C9447000C9447000C94470044
:100020000C9447000C9447000C9447000C94470034
:100030000C9447000C9447000C9447000C94470024
:100040000C9447000C9447000C9447000C94470014
:100050000C94470011241FBECFE5D4E0DEBFCDBF16
:1000600010E0A0E6B0E0E4E4F2E002C005900D92FA
:10007000A237B107D9F710E0A2E7B0E001C01D92A6
:10008000A337B107E1F70E9416010C9420010C94EC
:100090000000DC01CB010097A105B10541F00197FB
:1000A000A109B10900000097A105B105C1F70895A4
:1000B000009741F4089521503040E9F7000001977E
:1000C00019F408954FEF5FEF9A01F5CF8FEF8ABBD8
:1000D0001BBA0895CF93DF93CDB7DEB761970FB604
:1000E000F894DEBF0FBECDBFDE011196E0E6F0E072
:1000F00091E101900D929150E1F7FE01E80FF11DA1
:1001000081818BBB61960FB6F894DEBF0FBECDBF69
:10011000DF91CF910895CF93C0E08C2F0E946A00A9
:1001200087E090E00E945800CF5FC031B1F7CF91D7
:1001300008958FEF8ABB1BBA8ABB81B38F6081BBE6
:1001400008951BBA92B39F6092BB93980E946A0075
:100150006AE070E080E090E00E94490008951BBAD8
:1001600092B39F6092BB92980E946A006AE070E02E
:1001700080E090E00E94490008951BBA92B39F600E
:1001800092BB91980E946A006AE070E080E090E083
:100190000E94490008951BBA92B39F6092BB909849
:1001A0000E946A006AE070E080E090E00E944900EE
:1001B00008951F93CF93DF93C82FD62F142F822F2C
:1001C0000E94CB00812F0E94BD008D2F0E94AF00A6
:1001D0008C2F0E94A100DF91CF911F9108958A98E2
:1001E000929A85B7826085BF8BB780648BBF089574
:1001F000BA98C29A84B78F7B84BF8BB780628BBF5B
:1002000008951F920F920FB60F9211248F93809131
:1002100072008F5F80937200803111F4109272002F
:100220008F910F900FBE0F901F9018950E9466003F
:100230000E94EF007894809172000E946A00FBCFC8
:04024000F894FFCF60
:100244003F065B4F666D7D077F6F777C395E797102
:020254000000A8
:00000001FF
