S01B000054455354345F545241464649435F4C494748542E7372656360
S11300000C942A000C9447000C9447000C9447006D
S11300100C9447000C9447000C9447000C94470040
S11300200C9447000C9447000C9447000C94470030
S11300300C9447000C9447000C9447000C94470020
S11300400C9447000C9447000C9447000C94470010
S11300500C94470011241FBECFE5D4E0DEBFCDBF12
S113006010E0A0E6B0E0E8E3F2E002C005900D92F3
S1130070A236B107D9F710E0A2E6B0E001C01D92A4
S1130080A436B107E1F70E94B5000C941A010C9450
S11300900000DC01CB010097A105B10541F00197F7
S11300A0A109B10900000097A105B105C1F70895A0
S11300B0009741F4089521503040E9F7000001977A
S11300C019F408954FEF5FEF9A01F5CF8FEF8ABBD4
S11300D01BBA08954BB321E030E0B90102C0660FAA
S11300E0771F8A95E2F7CB0184278BBB08950F9382
S11300F01F93CF93C62F9AB301E010E002C0000F04
S1130100111F8A95E2F7802F902B9ABB9BB3892B02
S11301108BBB862F90E00E9458008BB30095082378
S11301200BBB8C2F90E00E945800CF911F910F9130
S11301300895CF938FEF8ABB81E08BBBC8E085E045
S113014090E00E9458008BB3880F8BBBC150B9F765
S1130150CF910895DF9B05C08BB3880F81608BBB63
S113016008958BB3880F8BBB08950E946600DAE074
S1130170FF246894F1F801E013E08091630081307A
S1130180A1F0813028F0823061F18330C1F736C0AC
S1130190D89AD998DA98DB98DC98DD9A84E690E0CE
S11301A00E94580000936300E8CFCD2FD89AD998C5
S11301B0DA98DB98DC9ADD9A85E090E00E9458009A
S11301C0D89AD998DA98DB98DC98DD9A85E090E0A3
S11301D00E945800C15051F710926200F0926300DF
S11301E0CCCFD898D998DA9ADB9ADC98DD9884E653
S11301F090E00E94580010936300BFCFCD2FD89891
S1130200D99ADA9ADB9ADC98DD9885E090E00E942E
S11302105800D898D998DA9ADB9ADC98DD9885E06A
S113022090E00E945800C15051F710926200109261
S10B02306300A3CFF894FFCF93
S10502380100BF
S9030000FC
