:100000000C942A000C9447000C9447000C94470071
:100010000C9447000C9447000C9447000C94470044
:100020000C9447000C9447000C9447000C94470034
:100030000C9447000C9447000C9447000C94470024
:100040000C9447000C9447000C9447000C94470014
:100050000C94470011241FBECFE5D4E0DEBFCDBF16
:1000600010E0A0E6B0E0E6E1F2E002C005900D92FB
:10007000A036B107D9F710E0A0E6B0E001C01D92AC
:10008000A236B107E1F70E9404010C9409010C9417
:100090000000DC01CB010097A105B10541F00197FB
:1000A000A109B10900000097A105B105C1F70895A4
:1000B000009741F4089521503040E9F7000001977E
:1000C00019F408954FEF5FEF9A01F5CF0F931F9347
:1000D000CF93C62F9AB301E010E002C0000F111FAA
:1000E0008A95E2F7802F902B9ABB9BB3892B8BBB11
:1000F000862F90E00E9458008BB3009508230BBB1D
:100100008C2F90E00E945800CF911F910F9108957D
:10011000CF938FEF8ABB81E08BBBC8E085E090E096
:100120000E9458008BB3880F8BBBC150B9F7CF9199
:10013000089517BA8FEF88BB0895CF9317BA8FEF42
:1001400088BBC6B3CC2361F16EE170E080E090E043
:100150000E944900CF3ED1F0C03F38F4CF3BD1F0F0
:10016000CF3DB1F0CF37D1F417C0CB3F59F0CC3FE2
:1001700018F4C73F99F408C0CD3FA1F0CE3F71F409
:1001800081E011C083E00FC084E00DC085E00BC0AA
:1001900086E009C087E007C088E005C080E103C0B1
:1001A00080E101C082E0CF9108958FEF8ABBB099C2
:1001B00007C080916100815087708093610008C002
:1001C000B19906C0809161008F5F87708093610054
:1001D00081E090E00090610002C0880F991F0A94AE
:1001E000E2F78BBB089596B380916000981759F0A1
:1001F00086B3809360000E94D50064E170E080E0E7
:1002000090E00E94490008950E9499000E94F30026
:06021000FDCFF894FFCFC2
:00000001FF
